:100000000C942B000C9448000C9448000C9448006D
:100010000C9448000C9448000C9448000C94480040
:100020000C9448000C9448000C9448000C94480030
:100030000C9448000C9448000C9448000C94480020
:100040000C9448000C9448000C9448000C94480010
:100050000C9448007D0011241FBECFE5D8E0DEBF20
:10006000CDBF20E0A0E6B0E001C01D92A336B207EC
:10007000E1F710E0CBE2D0E004C02197FE010E943E
:100080008400CA32D107C9F70E946F000C948A001D
:100090000C940000DC01FB0111967C936E93129688
:1000A0004C93DB012E9181E090E001C0880F4A95CE
:1000B000EAF7922F982B9C939081809589238083D7
:1000C0000895FC01A081B1818C91928121E030E002
:1000D00001C0220F9A95EAF782278C93089580E653
:1000E00090E00E9461002FE78FE492E12150804070
:1000F0009040E1F700C00000F2CF43E06BE370E016
:1001000080E690E00C944A00EE0FFF1F0590F491FA
:08011000E02D0994F894FFCFE3
:00000001FF
