:100000000C942B000C9453000C9453000C9453004C
:100010000C9453000C9453000C9453000C94530014
:100020000C9453000C9453000C9453000C94530004
:100030000C9453000C9453000C9453000C945300F4
:100040000C9453000C9453000C9453000C945300E4
:100050000C945300AD0011241FBECFE5D8E0DEBFE5
:10006000CDBF10E0A0E6B0E0EAE8F1E002C0059004
:100070000D92A836B107D9F720E0A8E6B0E001C09C
:100080001D92AF36B207E1F710E0CBE2D0E004C03A
:100090002197FE010E94BD00CA32D107C9F70E9414
:1000A0009F000C94C3000C940000EF920F93FC018E
:1000B000DB0171836083428323830483E58216829C
:1000C00061E070E0CB0101C0880F0A95EAF7FB01FF
:1000D00001C0EE0FEA94EAF78E2BFB0102C0EE0F8F
:1000E000FF1F2A95E2F78E2B01C0660F4A95EAF7AB
:1000F000862BFD01319780839C91809589238C9379
:100100000F91EF900895CF93DF93FC01A081B1810F
:100110008C91807F8C93A68181E08A0F8683C08139
:10012000D1818881B0E0A05ABF4F9C91892B8883F0
:100130008681883009F41682DF91CF91089588E690
:1001400090E00E9483002FEB84ED91E021508040ED
:100150009040E1F700C00000F2CFEF920F9383E0F0
:10016000E82E02E021E040E06BE370E088E690E0FA
:100170000E9455000F91EF900895EE0FFF1F05901C
:0A018000F491E02D0994F894FFCFEC
:08018A0001030206040C080940
:00000001FF
