:100000000C942B000C9453000C9453000C9453004C
:100010000C9453000C9453000C9453000C94530014
:100020000C9453000C9453000C9453000C94530004
:100030000C9453000C9453000C9453000C945300F4
:100040000C9453000C9453000C9453000C945300E4
:100050000C945300CF0011241FBECFE5D8E0DEBFC3
:10006000CDBF10E0A0E6B0E0EEECF1E002C00590FC
:100070000D92A836B107D9F720E0A8E6B0E001C09C
:100080001D92AF36B207E1F710E0CBE2D0E004C03A
:100090002197FE010E94DF00CA32D107C9F70E94F2
:1000A000C4000C94E5000C940000EF920F93FC0147
:1000B000DB0171836083428323830483E58216829C
:1000C00061E070E0CB0101C0880F0A95EAF7FB01FF
:1000D00001C0EE0FEA94EAF78E2BFB0102C0EE0F8F
:1000E000FF1F2A95E2F78E2B01C0660F4A95EAF7AB
:1000F000862BFD01319780839C91809589238C9379
:100100000F91EF900895CF93DF93FC01A081B1810F
:100110008C91807F8C93A68181E08A0F8683C08139
:10012000D1818881B0E0A05ABF4F9C91892B8883F0
:100130008681883009F41682DF91CF910895DC0121
:10014000FB0111967C936E9312964C93DB012E91DA
:1001500081E090E001C0880F4A95EAF7922F982B32
:100160009C9390818095892380830895FC01A081D0
:10017000B1818C91928121E030E001C0220F9A95EB
:10018000EAF782278C93089588E690E00E94830026
:1001900087E99AE30197F1F700C00000F5CFEF92ED
:1001A0000F9383E0E82E02E021E040E06BE370E093
:1001B00088E690E00E9455000F91EF900895EE0FB1
:0E01C000FF1F0590F491E02D0994F894FFCFF5
:0801CE0001030206040C0809FC
:00000001FF
